{
  "contractName": "BloodDonorRegistry",
  "abi": [
    {
      "inputs": [],
      "stateMutability": "nonpayable",
      "type": "constructor"
    },
    {
      "anonymous": false,
      "inputs": [
        {
          "indexed": true,
          "internalType": "uint256",
          "name": "donorId",
          "type": "uint256"
        },
        {
          "indexed": false,
          "internalType": "string",
          "name": "name",
          "type": "string"
        },
        {
          "indexed": false,
          "internalType": "string",
          "name": "bloodType",
          "type": "string"
        }
      ],
      "name": "DonorRegistered",
      "type": "event"
    },
    {
      "inputs": [],
      "name": "owner",
      "outputs": [
        {
          "internalType": "address",
          "name": "",
          "type": "address"
        }
      ],
      "stateMutability": "view",
      "type": "function",
      "constant": true
    },
    {
      "inputs": [
        {
          "internalType": "string",
          "name": "_name",
          "type": "string"
        },
        {
          "internalType": "string",
          "name": "_bloodType",
          "type": "string"
        }
      ],
      "name": "registerDonor",
      "outputs": [
        {
          "internalType": "uint256",
          "name": "",
          "type": "uint256"
        }
      ],
      "stateMutability": "nonpayable",
      "type": "function"
    },
    {
      "inputs": [
        {
          "internalType": "uint256",
          "name": "_id",
          "type": "uint256"
        }
      ],
      "name": "getDonor",
      "outputs": [
        {
          "internalType": "string",
          "name": "name",
          "type": "string"
        },
        {
          "internalType": "string",
          "name": "bloodType",
          "type": "string"
        }
      ],
      "stateMutability": "view",
      "type": "function",
      "constant": true
    }
  ],
  "bytecode": "0x6080604052600060015534801561001557600080fd5b50336000806101000a81548173ffffffffffffffffffffffffffffffffffffffff021916908373ffffffffffffffffffffffffffffffffffffffff160217905550610b39806100656000396000f3fe608060405234801561001057600080fd5b50600436106100415760003560e01c80636136a906146100465780638da5cb5b14610077578063a577589e14610095575b600080fd5b610060600480360381019061005b919061066b565b6100c5565b60405161006e929190610806565b60405180910390f35b61007f6102a0565b60405161008c91906107eb565b60405180910390f35b6100af60048036038101906100aa91906105ff565b6102c4565b6040516100bc91906108bd565b60405180910390f35b6060806002600084815260200190815260200160002060020160009054906101000a900460ff1661012b576040517f08c379a00000000000000000000000000000000000000000000000000000000081526004016101229061083d565b60405180910390fd5b60006002600085815260200190815260200160002060405180606001604052908160008201805461015b906109d3565b80601f0160208091040260200160405190810160405280929190818152602001828054610187906109d3565b80156101d45780601f106101a9576101008083540402835291602001916101d4565b820191906000526020600020905b8154815290600101906020018083116101b757829003601f168201915b505050505081526020016001820180546101ed906109d3565b80601f0160208091040260200160405190810160405280929190818152602001828054610219906109d3565b80156102665780601f1061023b57610100808354040283529160200191610266565b820191906000526020600020905b81548152906001019060200180831161024957829003601f168201915b505050505081526020016002820160009054906101000a900460ff1615151515815250509050806000015181602001519250925050915091565b60008054906101000a900473ffffffffffffffffffffffffffffffffffffffff1681565b60008060009054906101000a900473ffffffffffffffffffffffffffffffffffffffff1673ffffffffffffffffffffffffffffffffffffffff163373ffffffffffffffffffffffffffffffffffffffff1614610355576040517f08c379a000000000000000000000000000000000000000000000000000000000815260040161034c9061089d565b60405180910390fd5b60208351111561039a576040517f08c379a00000000000000000000000000000000000000000000000000000000081526004016103919061085d565b60405180910390fd5b6008825111156103df576040517f08c379a00000000000000000000000000000000000000000000000000000000081526004016103d69061087d565b60405180910390fd5b60006103e96104bd565b90506040518060600160405280858152602001848152602001600115158152506002600083815260200190815260200160002060008201518160000190805190602001906104389291906104df565b5060208201518160010190805190602001906104559291906104df565b5060408201518160020160006101000a81548160ff021916908315150217905550905050807f13f1476aa61e2107f46e6bc435eb6d18b382646af69e8591ea83e348641b6e7c85856040516104ab929190610806565b60405180910390a28091505092915050565b6000600160008154809291906104d290610a05565b9190505550600154905090565b8280546104eb906109d3565b90600052602060002090601f01602090048101928261050d5760008555610554565b82601f1061052657805160ff1916838001178555610554565b82800160010185558215610554579182015b82811115610553578251825591602001919060010190610538565b5b5090506105619190610565565b5090565b5b8082111561057e576000816000905550600101610566565b5090565b600061059561059084610909565b6108d8565b9050828152602081018484840111156105ad57600080fd5b6105b8848285610991565b509392505050565b600082601f8301126105d157600080fd5b81356105e1848260208601610582565b91505092915050565b6000813590506105f981610aec565b92915050565b6000806040838503121561061257600080fd5b600083013567ffffffffffffffff81111561062c57600080fd5b610638858286016105c0565b925050602083013567ffffffffffffffff81111561065557600080fd5b610661858286016105c0565b9150509250929050565b60006020828403121561067d57600080fd5b600061068b848285016105ea565b91505092915050565b61069d81610955565b82525050565b60006106ae82610939565b6106b88185610944565b93506106c88185602086016109a0565b6106d181610adb565b840191505092915050565b60006106e9600f83610944565b91507f446f6e6f72206e6f7420666f756e6400000000000000000000000000000000006000830152602082019050919050565b6000610729600d83610944565b91507f4e616d6520746f6f206c6f6e67000000000000000000000000000000000000006000830152602082019050919050565b6000610769601383610944565b91507f426c6f6f64207479706520746f6f206c6f6e67000000000000000000000000006000830152602082019050919050565b60006107a9600e83610944565b91507f4e6f7420617574686f72697a65640000000000000000000000000000000000006000830152602082019050919050565b6107e581610987565b82525050565b60006020820190506108006000830184610694565b92915050565b6000604082019050818103600083015261082081856106a3565b9050818103602083015261083481846106a3565b90509392505050565b60006020820190508181036000830152610856816106dc565b9050919050565b600060208201905081810360008301526108768161071c565b9050919050565b600060208201905081810360008301526108968161075c565b9050919050565b600060208201905081810360008301526108b68161079c565b9050919050565b60006020820190506108d260008301846107dc565b92915050565b6000604051905081810181811067ffffffffffffffff821117156108ff576108fe610aac565b5b8060405250919050565b600067ffffffffffffffff82111561092457610923610aac565b5b601f19601f8301169050602081019050919050565b600081519050919050565b600082825260208201905092915050565b600061096082610967565b9050919050565b600073ffffffffffffffffffffffffffffffffffffffff82169050919050565b6000819050919050565b82818337600083830152505050565b60005b838110156109be5780820151818401526020810190506109a3565b838111156109cd576000848401525b50505050565b600060028204905060018216806109eb57607f821691505b602082108114156109ff576109fe610a7d565b5b50919050565b6000610a1082610987565b91507fffffffffffffffffffffffffffffffffffffffffffffffffffffffffffffffff821415610a4357610a42610a4e565b5b600182019050919050565b7f4e487b7100000000000000000000000000000000000000000000000000000000600052601160045260246000fd5b7f4e487b7100000000000000000000000000000000000000000000000000000000600052602260045260246000fd5b7f4e487b7100000000000000000000000000000000000000000000000000000000600052604160045260246000fd5b6000601f19601f8301169050919050565b610af581610987565b8114610b0057600080fd5b5056fea264697066735822122054edb2d802ee2a31f0122276c9dc351939234d8a6295565567b6c9efcef422f864736f6c63430008000033",
  "immutableReferences": {},
  "source": "// SPDX-License-Identifier: MIT\npragma solidity ^0.8.0;\n\ncontract BloodDonorRegistry {\n    address public owner;\n    uint256 private lastDonorId = 0; // Start ID at a known value to avoid collisions\n\n    struct Donor {\n        string name;\n        string bloodType;\n        bool exists;\n    }\n\n    mapping(uint256 => Donor) private donors;\n\n    event DonorRegistered(uint256 indexed donorId, string name, string bloodType);\n\n    modifier onlyOwner() {\n        require(msg.sender == owner, \"Not authorized\");\n        _;\n    }\n\n    constructor() {\n        owner = msg.sender;\n    }\n\n    function generateUniqueId() private returns (uint256) {\n        lastDonorId++; // Increment for uniqueness\n        return lastDonorId;\n    }\n\n    function registerDonor(string memory _name, string memory _bloodType) \n        public \n        onlyOwner \n        returns (uint256) \n    {\n        require(bytes(_name).length <= 32, \"Name too long\");\n        require(bytes(_bloodType).length <= 8, \"Blood type too long\");\n\n        uint256 id = generateUniqueId(); // Ensure unique IDs\n        donors[id] = Donor(_name, _bloodType, true);\n\n        emit DonorRegistered(id, _name, _bloodType);\n        return id;\n    }\n\n    function getDonor(uint256 _id) \n        public \n        view \n        returns (string memory name, string memory bloodType) \n    {\n        require(donors[_id].exists, \"Donor not found\");\n        Donor memory donor = donors[_id];\n        return (donor.name, donor.bloodType);\n    }\n}",
  "sourcePath": "/Users/bharaths_mac/hemo_chain/contracts/Donor_ registration.sol",
  "compiler": {
    "name": "solc",
    "version": "0.8.0+commit.c7dfd78e.Emscripten.clang"
  },
  "schemaVersion": "3.4.16",
  "updatedAt": "2025-02-27T13:04:30.674Z",
  "networkType": "ethereum",
  "devdoc": {
    "kind": "dev",
    "methods": {},
    "version": 1
  },
  "userdoc": {
    "kind": "user",
    "methods": {},
    "version": 1
  }
}